{
  "contractName": "Pingus",
  "abi": [
    {
      "inputs": [
        {
          "internalType": "address",
          "name": "SnowAddress",
          "type": "address"
        }
      ],
      "stateMutability": "payable",
      "type": "constructor",
      "payable": true
    },
    {
      "anonymous": false,
      "inputs": [
        {
          "indexed": true,
          "internalType": "address",
          "name": "owner",
          "type": "address"
        },
        {
          "indexed": true,
          "internalType": "address",
          "name": "approved",
          "type": "address"
        },
        {
          "indexed": true,
          "internalType": "uint256",
          "name": "tokenId",
          "type": "uint256"
        }
      ],
      "name": "Approval",
      "type": "event"
    },
    {
      "anonymous": false,
      "inputs": [
        {
          "indexed": true,
          "internalType": "address",
          "name": "owner",
          "type": "address"
        },
        {
          "indexed": true,
          "internalType": "address",
          "name": "operator",
          "type": "address"
        },
        {
          "indexed": false,
          "internalType": "bool",
          "name": "approved",
          "type": "bool"
        }
      ],
      "name": "ApprovalForAll",
      "type": "event"
    },
    {
      "anonymous": false,
      "inputs": [
        {
          "indexed": false,
          "internalType": "address",
          "name": "_seller",
          "type": "address"
        },
        {
          "indexed": false,
          "internalType": "address",
          "name": "_buyer",
          "type": "address"
        },
        {
          "indexed": false,
          "internalType": "uint256",
          "name": "_price",
          "type": "uint256"
        }
      ],
      "name": "NftBought",
      "type": "event"
    },
    {
      "anonymous": false,
      "inputs": [
        {
          "indexed": true,
          "internalType": "address",
          "name": "previousOwner",
          "type": "address"
        },
        {
          "indexed": true,
          "internalType": "address",
          "name": "newOwner",
          "type": "address"
        }
      ],
      "name": "OwnershipTransferred",
      "type": "event"
    },
    {
      "anonymous": false,
      "inputs": [
        {
          "indexed": true,
          "internalType": "address",
          "name": "from",
          "type": "address"
        },
        {
          "indexed": true,
          "internalType": "address",
          "name": "to",
          "type": "address"
        },
        {
          "indexed": true,
          "internalType": "uint256",
          "name": "tokenId",
          "type": "uint256"
        }
      ],
      "name": "Transfer",
      "type": "event"
    },
    {
      "inputs": [
        {
          "internalType": "address",
          "name": "to",
          "type": "address"
        },
        {
          "internalType": "uint256",
          "name": "tokenId",
          "type": "uint256"
        }
      ],
      "name": "approve",
      "outputs": [],
      "stateMutability": "nonpayable",
      "type": "function"
    },
    {
      "inputs": [
        {
          "internalType": "address",
          "name": "owner",
          "type": "address"
        }
      ],
      "name": "balanceOf",
      "outputs": [
        {
          "internalType": "uint256",
          "name": "",
          "type": "uint256"
        }
      ],
      "stateMutability": "view",
      "type": "function",
      "constant": true
    },
    {
      "inputs": [
        {
          "internalType": "uint256",
          "name": "tokenId",
          "type": "uint256"
        }
      ],
      "name": "getApproved",
      "outputs": [
        {
          "internalType": "address",
          "name": "",
          "type": "address"
        }
      ],
      "stateMutability": "view",
      "type": "function",
      "constant": true
    },
    {
      "inputs": [
        {
          "internalType": "address",
          "name": "owner",
          "type": "address"
        },
        {
          "internalType": "address",
          "name": "operator",
          "type": "address"
        }
      ],
      "name": "isApprovedForAll",
      "outputs": [
        {
          "internalType": "bool",
          "name": "",
          "type": "bool"
        }
      ],
      "stateMutability": "view",
      "type": "function",
      "constant": true
    },
    {
      "inputs": [],
      "name": "isMintEnabled",
      "outputs": [
        {
          "internalType": "bool",
          "name": "",
          "type": "bool"
        }
      ],
      "stateMutability": "view",
      "type": "function",
      "constant": true
    },
    {
      "inputs": [],
      "name": "maxSupply",
      "outputs": [
        {
          "internalType": "uint256",
          "name": "",
          "type": "uint256"
        }
      ],
      "stateMutability": "view",
      "type": "function",
      "constant": true
    },
    {
      "inputs": [],
      "name": "mintPrice",
      "outputs": [
        {
          "internalType": "uint256",
          "name": "",
          "type": "uint256"
        }
      ],
      "stateMutability": "view",
      "type": "function",
      "constant": true
    },
    {
      "inputs": [
        {
          "internalType": "address",
          "name": "",
          "type": "address"
        }
      ],
      "name": "mintedWallets",
      "outputs": [
        {
          "internalType": "uint256",
          "name": "",
          "type": "uint256"
        }
      ],
      "stateMutability": "view",
      "type": "function",
      "constant": true
    },
    {
      "inputs": [],
      "name": "name",
      "outputs": [
        {
          "internalType": "string",
          "name": "",
          "type": "string"
        }
      ],
      "stateMutability": "view",
      "type": "function",
      "constant": true
    },
    {
      "inputs": [],
      "name": "owner",
      "outputs": [
        {
          "internalType": "address",
          "name": "",
          "type": "address"
        }
      ],
      "stateMutability": "view",
      "type": "function",
      "constant": true
    },
    {
      "inputs": [
        {
          "internalType": "uint256",
          "name": "tokenId",
          "type": "uint256"
        }
      ],
      "name": "ownerOf",
      "outputs": [
        {
          "internalType": "address",
          "name": "",
          "type": "address"
        }
      ],
      "stateMutability": "view",
      "type": "function",
      "constant": true
    },
    {
      "inputs": [],
      "name": "renounceOwnership",
      "outputs": [],
      "stateMutability": "nonpayable",
      "type": "function"
    },
    {
      "inputs": [
        {
          "internalType": "address",
          "name": "from",
          "type": "address"
        },
        {
          "internalType": "address",
          "name": "to",
          "type": "address"
        },
        {
          "internalType": "uint256",
          "name": "tokenId",
          "type": "uint256"
        }
      ],
      "name": "safeTransferFrom",
      "outputs": [],
      "stateMutability": "nonpayable",
      "type": "function"
    },
    {
      "inputs": [
        {
          "internalType": "address",
          "name": "from",
          "type": "address"
        },
        {
          "internalType": "address",
          "name": "to",
          "type": "address"
        },
        {
          "internalType": "uint256",
          "name": "tokenId",
          "type": "uint256"
        },
        {
          "internalType": "bytes",
          "name": "_data",
          "type": "bytes"
        }
      ],
      "name": "safeTransferFrom",
      "outputs": [],
      "stateMutability": "nonpayable",
      "type": "function"
    },
    {
      "inputs": [
        {
          "internalType": "address",
          "name": "operator",
          "type": "address"
        },
        {
          "internalType": "bool",
          "name": "approved",
          "type": "bool"
        }
      ],
      "name": "setApprovalForAll",
      "outputs": [],
      "stateMutability": "nonpayable",
      "type": "function"
    },
    {
      "inputs": [
        {
          "internalType": "bytes4",
          "name": "interfaceId",
          "type": "bytes4"
        }
      ],
      "name": "supportsInterface",
      "outputs": [
        {
          "internalType": "bool",
          "name": "",
          "type": "bool"
        }
      ],
      "stateMutability": "view",
      "type": "function",
      "constant": true
    },
    {
      "inputs": [],
      "name": "symbol",
      "outputs": [
        {
          "internalType": "string",
          "name": "",
          "type": "string"
        }
      ],
      "stateMutability": "view",
      "type": "function",
      "constant": true
    },
    {
      "inputs": [
        {
          "internalType": "uint256",
          "name": "tokenId",
          "type": "uint256"
        }
      ],
      "name": "tokenURI",
      "outputs": [
        {
          "internalType": "string",
          "name": "",
          "type": "string"
        }
      ],
      "stateMutability": "view",
      "type": "function",
      "constant": true
    },
    {
      "inputs": [],
      "name": "totalSupply",
      "outputs": [
        {
          "internalType": "uint256",
          "name": "",
          "type": "uint256"
        }
      ],
      "stateMutability": "view",
      "type": "function",
      "constant": true
    },
    {
      "inputs": [
        {
          "internalType": "address",
          "name": "from",
          "type": "address"
        },
        {
          "internalType": "address",
          "name": "to",
          "type": "address"
        },
        {
          "internalType": "uint256",
          "name": "tokenId",
          "type": "uint256"
        }
      ],
      "name": "transferFrom",
      "outputs": [],
      "stateMutability": "nonpayable",
      "type": "function"
    },
    {
      "inputs": [
        {
          "internalType": "address",
          "name": "newOwner",
          "type": "address"
        }
      ],
      "name": "transferOwnership",
      "outputs": [],
      "stateMutability": "nonpayable",
      "type": "function"
    },
    {
      "inputs": [],
      "name": "toggleIsMintEnabled",
      "outputs": [],
      "stateMutability": "nonpayable",
      "type": "function"
    },
    {
      "inputs": [
        {
          "internalType": "address",
          "name": "account",
          "type": "address"
        }
      ],
      "name": "SnowBalance",
      "outputs": [
        {
          "internalType": "uint256",
          "name": "",
          "type": "uint256"
        }
      ],
      "stateMutability": "view",
      "type": "function",
      "constant": true
    },
    {
      "inputs": [
        {
          "internalType": "address",
          "name": "account",
          "type": "address"
        }
      ],
      "name": "Balance",
      "outputs": [
        {
          "internalType": "uint256",
          "name": "",
          "type": "uint256"
        }
      ],
      "stateMutability": "view",
      "type": "function",
      "constant": true
    },
    {
      "inputs": [
        {
          "internalType": "uint256",
          "name": "NFTS",
          "type": "uint256"
        }
      ],
      "name": "mint",
      "outputs": [],
      "stateMutability": "payable",
      "type": "function",
      "payable": true
    },
    {
      "inputs": [],
      "name": "withdrawSnow",
      "outputs": [],
      "stateMutability": "nonpayable",
      "type": "function"
    },
    {
      "inputs": [
        {
          "internalType": "uint256",
          "name": "_tokenId",
          "type": "uint256"
        },
        {
          "internalType": "address",
          "name": "_reciever",
          "type": "address"
        }
      ],
      "name": "TransferNFT",
      "outputs": [],
      "stateMutability": "payable",
      "type": "function",
      "payable": true
    }
  ],
  "bytecode": "0x60806040526103e860075560405162003ea538038062003ea583398181016040528101906200002f9190620003b8565b6040518060400160405280600881526020017f50696e67754e46540000000000000000000000000000000000000000000000008152506040518060400160405280600681526020017f50494e47555300000000000000000000000000000000000000000000000000008152508160009080519060200190620000b39291906200029e565b508060019080519060200190620000cc9291906200029e565b505050620000ef620000e3620001d060201b60201c565b620001d860201b60201c565b600860098190555080600a60016101000a81548173ffffffffffffffffffffffffffffffffffffffff021916908373ffffffffffffffffffffffffffffffffffffffff160217905550600a60019054906101000a900473ffffffffffffffffffffffffffffffffffffffff1673ffffffffffffffffffffffffffffffffffffffff1663324d14ae306040518263ffffffff1660e01b8152600401620001959190620003fb565b600060405180830381600087803b158015620001b057600080fd5b505af1158015620001c5573d6000803e3d6000fd5b50505050506200047c565b600033905090565b6000600660009054906101000a900473ffffffffffffffffffffffffffffffffffffffff16905081600660006101000a81548173ffffffffffffffffffffffffffffffffffffffff021916908373ffffffffffffffffffffffffffffffffffffffff1602179055508173ffffffffffffffffffffffffffffffffffffffff168173ffffffffffffffffffffffffffffffffffffffff167f8be0079c531659141344cd1fd0a4f28419497f9722a3daafe3b4186f6b6457e060405160405180910390a35050565b828054620002ac9062000447565b90600052602060002090601f016020900481019282620002d057600085556200031c565b82601f10620002eb57805160ff19168380011785556200031c565b828001600101855582156200031c579182015b828111156200031b578251825591602001919060010190620002fe565b5b5090506200032b91906200032f565b5090565b5b808211156200034a57600081600090555060010162000330565b5090565b600080fd5b600073ffffffffffffffffffffffffffffffffffffffff82169050919050565b6000620003808262000353565b9050919050565b620003928162000373565b81146200039e57600080fd5b50565b600081519050620003b28162000387565b92915050565b600060208284031215620003d157620003d06200034e565b5b6000620003e184828501620003a1565b91505092915050565b620003f58162000373565b82525050565b6000602082019050620004126000830184620003ea565b92915050565b7f4e487b7100000000000000000000000000000000000000000000000000000000600052602260045260246000fd5b600060028204905060018216806200046057607f821691505b60208210810362000476576200047562000418565b5b50919050565b613a19806200048c6000396000f3fe60806040526004361061019c5760003560e01c806370a08231116100ec578063ada7c4ed1161008a578063c87b56dd11610064578063c87b56dd14610598578063d5abeb01146105d5578063e985e9c514610600578063f2fde38b1461063d5761019c565b8063ada7c4ed1461051b578063b88d4fde14610558578063c4073217146105815761019c565b80638da5cb5b116100c65780638da5cb5b1461048057806395d89b41146104ab578063a0712d68146104d6578063a22cb465146104f25761019c565b806370a0823114610410578063715018a61461044d5780637d172304146104645761019c565b806323b872dd116101595780634cfbf9cc116101335780634cfbf9cc1461035457806358b1f2e81461036b5780636352211e146103a85780636817c76c146103e55761019c565b806323b872dd146102d7578063346de50a1461030057806342842e0e1461032b5761019c565b806301ffc9a7146101a157806306fdde03146101de578063081812fc14610209578063095ea7b31461024657806318160ddd1461026f578063239fcf0f1461029a575b600080fd5b3480156101ad57600080fd5b506101c860048036038101906101c39190612457565b610666565b6040516101d5919061249f565b60405180910390f35b3480156101ea57600080fd5b506101f3610748565b6040516102009190612553565b60405180910390f35b34801561021557600080fd5b50610230600480360381019061022b91906125ab565b6107da565b60405161023d9190612619565b60405180910390f35b34801561025257600080fd5b5061026d60048036038101906102689190612660565b61085f565b005b34801561027b57600080fd5b50610284610976565b60405161029191906126af565b60405180910390f35b3480156102a657600080fd5b506102c160048036038101906102bc91906126ca565b61097c565b6040516102ce91906126af565b60405180910390f35b3480156102e357600080fd5b506102fe60048036038101906102f991906126f7565b61098e565b005b34801561030c57600080fd5b506103156109ee565b604051610322919061249f565b60405180910390f35b34801561033757600080fd5b50610352600480360381019061034d91906126f7565b610a01565b005b34801561036057600080fd5b50610369610a21565b005b34801561037757600080fd5b50610392600480360381019061038d91906126ca565b610be3565b60405161039f91906126af565b60405180910390f35b3480156103b457600080fd5b506103cf60048036038101906103ca91906125ab565b610c88565b6040516103dc9190612619565b60405180910390f35b3480156103f157600080fd5b506103fa610d39565b60405161040791906126af565b60405180910390f35b34801561041c57600080fd5b50610437600480360381019061043291906126ca565b610d3f565b60405161044491906126af565b60405180910390f35b34801561045957600080fd5b50610462610df6565b005b61047e6004803603810190610479919061274a565b610e7e565b005b34801561048c57600080fd5b50610495610f03565b6040516104a29190612619565b60405180910390f35b3480156104b757600080fd5b506104c0610f2d565b6040516104cd9190612553565b60405180910390f35b6104f060048036038101906104eb91906125ab565b610fbf565b005b3480156104fe57600080fd5b50610519600480360381019061051491906127b6565b611395565b005b34801561052757600080fd5b50610542600480360381019061053d91906126ca565b6113ab565b60405161054f91906126af565b60405180910390f35b34801561056457600080fd5b5061057f600480360381019061057a919061292b565b6113c3565b005b34801561058d57600080fd5b50610596611425565b005b3480156105a457600080fd5b506105bf60048036038101906105ba91906125ab565b6114cd565b6040516105cc9190612553565b60405180910390f35b3480156105e157600080fd5b506105ea611574565b6040516105f791906126af565b60405180910390f35b34801561060c57600080fd5b50610627600480360381019061062291906129ae565b61157a565b604051610634919061249f565b60405180910390f35b34801561064957600080fd5b50610664600480360381019061065f91906126ca565b61160e565b005b60007f80ac58cd000000000000000000000000000000000000000000000000000000007bffffffffffffffffffffffffffffffffffffffffffffffffffffffff1916827bffffffffffffffffffffffffffffffffffffffffffffffffffffffff1916148061073157507f5b5e139f000000000000000000000000000000000000000000000000000000007bffffffffffffffffffffffffffffffffffffffffffffffffffffffff1916827bffffffffffffffffffffffffffffffffffffffffffffffffffffffff1916145b80610741575061074082611705565b5b9050919050565b60606000805461075790612a1d565b80601f016020809104026020016040519081016040528092919081815260200182805461078390612a1d565b80156107d05780601f106107a5576101008083540402835291602001916107d0565b820191906000526020600020905b8154815290600101906020018083116107b357829003601f168201915b5050505050905090565b60006107e58261176f565b610824576040517f08c379a000000000000000000000000000000000000000000000000000000000815260040161081b90612ac0565b60405180910390fd5b6004600083815260200190815260200160002060009054906101000a900473ffffffffffffffffffffffffffffffffffffffff169050919050565b600061086a82610c88565b90508073ffffffffffffffffffffffffffffffffffffffff168373ffffffffffffffffffffffffffffffffffffffff16036108da576040517f08c379a00000000000000000000000000000000000000000000000000000000081526004016108d190612b52565b60405180910390fd5b8073ffffffffffffffffffffffffffffffffffffffff166108f96117db565b73ffffffffffffffffffffffffffffffffffffffff1614806109285750610927816109226117db565b61157a565b5b610967576040517f08c379a000000000000000000000000000000000000000000000000000000000815260040161095e90612be4565b60405180910390fd5b61097183836117e3565b505050565b60085481565b600061098782610d3f565b9050919050565b61099f6109996117db565b8261189c565b6109de576040517f08c379a00000000000000000000000000000000000000000000000000000000081526004016109d590612c76565b60405180910390fd5b6109e983838361197a565b505050565b600a60009054906101000a900460ff1681565b610a1c838383604051806020016040528060008152506113c3565b505050565b610a296117db565b73ffffffffffffffffffffffffffffffffffffffff16610a47610f03565b73ffffffffffffffffffffffffffffffffffffffff1614610a9d576040517f08c379a0000000000000000000000000000000000000000000000000000000008152600401610a9490612ce2565b60405180910390fd5b6000600a60019054906101000a900473ffffffffffffffffffffffffffffffffffffffff1673ffffffffffffffffffffffffffffffffffffffff1663f8b2cb4f306040518263ffffffff1660e01b8152600401610afa9190612619565b602060405180830381865afa158015610b17573d6000803e3d6000fd5b505050506040513d601f19601f82011682018060405250810190610b3b9190612d17565b9050600a60019054906101000a900473ffffffffffffffffffffffffffffffffffffffff1673ffffffffffffffffffffffffffffffffffffffff166323b872dd3033846040518463ffffffff1660e01b8152600401610b9c93929190612d44565b6020604051808303816000875af1158015610bbb573d6000803e3d6000fd5b505050506040513d601f19601f82011682018060405250810190610bdf9190612d90565b5050565b6000600a60019054906101000a900473ffffffffffffffffffffffffffffffffffffffff1673ffffffffffffffffffffffffffffffffffffffff1663f8b2cb4f836040518263ffffffff1660e01b8152600401610c409190612619565b602060405180830381865afa158015610c5d573d6000803e3d6000fd5b505050506040513d601f19601f82011682018060405250810190610c819190612d17565b9050919050565b6000806002600084815260200190815260200160002060009054906101000a900473ffffffffffffffffffffffffffffffffffffffff169050600073ffffffffffffffffffffffffffffffffffffffff168173ffffffffffffffffffffffffffffffffffffffff1603610d30576040517f08c379a0000000000000000000000000000000000000000000000000000000008152600401610d2790612e2f565b60405180910390fd5b80915050919050565b60075481565b60008073ffffffffffffffffffffffffffffffffffffffff168273ffffffffffffffffffffffffffffffffffffffff1603610daf576040517f08c379a0000000000000000000000000000000000000000000000000000000008152600401610da690612ec1565b60405180910390fd5b600360008373ffffffffffffffffffffffffffffffffffffffff1673ffffffffffffffffffffffffffffffffffffffff168152602001908152602001600020549050919050565b610dfe6117db565b73ffffffffffffffffffffffffffffffffffffffff16610e1c610f03565b73ffffffffffffffffffffffffffffffffffffffff1614610e72576040517f08c379a0000000000000000000000000000000000000000000000000000000008152600401610e6990612ce2565b60405180910390fd5b610e7c6000611be0565b565b610e8782610c88565b73ffffffffffffffffffffffffffffffffffffffff163373ffffffffffffffffffffffffffffffffffffffff1614610ef4576040517f08c379a0000000000000000000000000000000000000000000000000000000008152600401610eeb90612f2d565b60405180910390fd5b610eff33828461197a565b5050565b6000600660009054906101000a900473ffffffffffffffffffffffffffffffffffffffff16905090565b606060018054610f3c90612a1d565b80601f0160208091040260200160405190810160405280929190818152602001828054610f6890612a1d565b8015610fb55780601f10610f8a57610100808354040283529160200191610fb5565b820191906000526020600020905b815481529060010190602001808311610f9857829003601f168201915b5050505050905090565b6003811115611003576040517f08c379a0000000000000000000000000000000000000000000000000000000008152600401610ffa90612f99565b60405180910390fd5b60008103611046576040517f08c379a000000000000000000000000000000000000000000000000000000000815260040161103d90613005565b60405180910390fd5b600a60019054906101000a900473ffffffffffffffffffffffffffffffffffffffff1673ffffffffffffffffffffffffffffffffffffffff1663f8b2cb4f336040518263ffffffff1660e01b81526004016110a19190612619565b602060405180830381865afa1580156110be573d6000803e3d6000fd5b505050506040513d601f19601f820116820180604052508101906110e29190612d17565b816007546110f09190613054565b1115611131576040517f08c379a0000000000000000000000000000000000000000000000000000000008152600401611128906130fa565b60405180910390fd5b600a60009054906101000a900460ff16611180576040517f08c379a000000000000000000000000000000000000000000000000000000000815260040161117790613166565b60405180910390fd5b6003600b60003373ffffffffffffffffffffffffffffffffffffffff1673ffffffffffffffffffffffffffffffffffffffff1681526020019081526020016000205410611202576040517f08c379a00000000000000000000000000000000000000000000000000000000081526004016111f9906131d2565b60405180910390fd5b60085460095411611248576040517f08c379a000000000000000000000000000000000000000000000000000000000815260040161123f9061323e565b60405180910390fd5b600a60019054906101000a900473ffffffffffffffffffffffffffffffffffffffff1673ffffffffffffffffffffffffffffffffffffffff166323b872dd3330846007546112969190613054565b6040518463ffffffff1660e01b81526004016112b493929190612d44565b6020604051808303816000875af11580156112d3573d6000803e3d6000fd5b505050506040513d601f19601f820116820180604052508101906112f79190612d90565b5060005b8082111561139157808061130e9061325e565b915050600b60003373ffffffffffffffffffffffffffffffffffffffff1673ffffffffffffffffffffffffffffffffffffffff16815260200190815260200160002060008154809291906113619061325e565b919050555060006008600081548092919061137b9061325e565b91905055905061138b3382611ca6565b506112fb565b5050565b6113a76113a06117db565b8383611cc4565b5050565b600b6020528060005260406000206000915090505481565b6113d46113ce6117db565b8361189c565b611413576040517f08c379a000000000000000000000000000000000000000000000000000000000815260040161140a90612c76565b60405180910390fd5b61141f84848484611e30565b50505050565b61142d6117db565b73ffffffffffffffffffffffffffffffffffffffff1661144b610f03565b73ffffffffffffffffffffffffffffffffffffffff16146114a1576040517f08c379a000000000000000000000000000000000000000000000000000000000815260040161149890612ce2565b60405180910390fd5b600a60009054906101000a900460ff1615600a60006101000a81548160ff021916908315150217905550565b60606114d88261176f565b611517576040517f08c379a000000000000000000000000000000000000000000000000000000000815260040161150e90613318565b60405180910390fd5b6000611521611e8c565b90506000815111611541576040518060200160405280600081525061156c565b8061154b84611ea3565b60405160200161155c929190613374565b6040516020818303038152906040525b915050919050565b60095481565b6000600560008473ffffffffffffffffffffffffffffffffffffffff1673ffffffffffffffffffffffffffffffffffffffff16815260200190815260200160002060008373ffffffffffffffffffffffffffffffffffffffff1673ffffffffffffffffffffffffffffffffffffffff16815260200190815260200160002060009054906101000a900460ff16905092915050565b6116166117db565b73ffffffffffffffffffffffffffffffffffffffff16611634610f03565b73ffffffffffffffffffffffffffffffffffffffff161461168a576040517f08c379a000000000000000000000000000000000000000000000000000000000815260040161168190612ce2565b60405180910390fd5b600073ffffffffffffffffffffffffffffffffffffffff168173ffffffffffffffffffffffffffffffffffffffff16036116f9576040517f08c379a00000000000000000000000000000000000000000000000000000000081526004016116f09061340a565b60405180910390fd5b61170281611be0565b50565b60007f01ffc9a7000000000000000000000000000000000000000000000000000000007bffffffffffffffffffffffffffffffffffffffffffffffffffffffff1916827bffffffffffffffffffffffffffffffffffffffffffffffffffffffff1916149050919050565b60008073ffffffffffffffffffffffffffffffffffffffff166002600084815260200190815260200160002060009054906101000a900473ffffffffffffffffffffffffffffffffffffffff1673ffffffffffffffffffffffffffffffffffffffff1614159050919050565b600033905090565b816004600083815260200190815260200160002060006101000a81548173ffffffffffffffffffffffffffffffffffffffff021916908373ffffffffffffffffffffffffffffffffffffffff160217905550808273ffffffffffffffffffffffffffffffffffffffff1661185683610c88565b73ffffffffffffffffffffffffffffffffffffffff167f8c5be1e5ebec7d5bd14f71427d1e84f3dd0314c0f7b2291e5b200ac8c7c3b92560405160405180910390a45050565b60006118a78261176f565b6118e6576040517f08c379a00000000000000000000000000000000000000000000000000000000081526004016118dd9061349c565b60405180910390fd5b60006118f183610c88565b90508073ffffffffffffffffffffffffffffffffffffffff168473ffffffffffffffffffffffffffffffffffffffff16148061196057508373ffffffffffffffffffffffffffffffffffffffff16611948846107da565b73ffffffffffffffffffffffffffffffffffffffff16145b806119715750611970818561157a565b5b91505092915050565b8273ffffffffffffffffffffffffffffffffffffffff1661199a82610c88565b73ffffffffffffffffffffffffffffffffffffffff16146119f0576040517f08c379a00000000000000000000000000000000000000000000000000000000081526004016119e79061352e565b60405180910390fd5b600073ffffffffffffffffffffffffffffffffffffffff168273ffffffffffffffffffffffffffffffffffffffff1603611a5f576040517f08c379a0000000000000000000000000000000000000000000000000000000008152600401611a56906135c0565b60405180910390fd5b611a6a838383612003565b611a756000826117e3565b6001600360008573ffffffffffffffffffffffffffffffffffffffff1673ffffffffffffffffffffffffffffffffffffffff1681526020019081526020016000206000828254611ac591906135e0565b925050819055506001600360008473ffffffffffffffffffffffffffffffffffffffff1673ffffffffffffffffffffffffffffffffffffffff1681526020019081526020016000206000828254611b1c9190613614565b92505081905550816002600083815260200190815260200160002060006101000a81548173ffffffffffffffffffffffffffffffffffffffff021916908373ffffffffffffffffffffffffffffffffffffffff160217905550808273ffffffffffffffffffffffffffffffffffffffff168473ffffffffffffffffffffffffffffffffffffffff167fddf252ad1be2c89b69c2b068fc378daa952ba7f163c4a11628f55a4df523b3ef60405160405180910390a4611bdb838383612008565b505050565b6000600660009054906101000a900473ffffffffffffffffffffffffffffffffffffffff16905081600660006101000a81548173ffffffffffffffffffffffffffffffffffffffff021916908373ffffffffffffffffffffffffffffffffffffffff1602179055508173ffffffffffffffffffffffffffffffffffffffff168173ffffffffffffffffffffffffffffffffffffffff167f8be0079c531659141344cd1fd0a4f28419497f9722a3daafe3b4186f6b6457e060405160405180910390a35050565b611cc082826040518060200160405280600081525061200d565b5050565b8173ffffffffffffffffffffffffffffffffffffffff168373ffffffffffffffffffffffffffffffffffffffff1603611d32576040517f08c379a0000000000000000000000000000000000000000000000000000000008152600401611d29906136b6565b60405180910390fd5b80600560008573ffffffffffffffffffffffffffffffffffffffff1673ffffffffffffffffffffffffffffffffffffffff16815260200190815260200160002060008473ffffffffffffffffffffffffffffffffffffffff1673ffffffffffffffffffffffffffffffffffffffff16815260200190815260200160002060006101000a81548160ff0219169083151502179055508173ffffffffffffffffffffffffffffffffffffffff168373ffffffffffffffffffffffffffffffffffffffff167f17307eab39ab6107e8899845ad3d59bd9653f200f220920489ca2b5937696c3183604051611e23919061249f565b60405180910390a3505050565b611e3b84848461197a565b611e4784848484612068565b611e86576040517f08c379a0000000000000000000000000000000000000000000000000000000008152600401611e7d90613748565b60405180910390fd5b50505050565b606060405180602001604052806000815250905090565b606060008203611eea576040518060400160405280600181526020017f30000000000000000000000000000000000000000000000000000000000000008152509050611ffe565b600082905060005b60008214611f1c578080611f059061325e565b915050600a82611f159190613797565b9150611ef2565b60008167ffffffffffffffff811115611f3857611f37612800565b5b6040519080825280601f01601f191660200182016040528015611f6a5781602001600182028036833780820191505090505b5090505b60008514611ff757600182611f8391906135e0565b9150600a85611f9291906137c8565b6030611f9e9190613614565b60f81b818381518110611fb457611fb36137f9565b5b60200101907effffffffffffffffffffffffffffffffffffffffffffffffffffffffffffff1916908160001a905350600a85611ff09190613797565b9450611f6e565b8093505050505b919050565b505050565b505050565b61201783836121ef565b6120246000848484612068565b612063576040517f08c379a000000000000000000000000000000000000000000000000000000000815260040161205a90613748565b60405180910390fd5b505050565b60006120898473ffffffffffffffffffffffffffffffffffffffff166123c8565b156121e2578373ffffffffffffffffffffffffffffffffffffffff1663150b7a026120b26117db565b8786866040518563ffffffff1660e01b81526004016120d4949392919061387d565b6020604051808303816000875af192505050801561211057506040513d601f19601f8201168201806040525081019061210d91906138de565b60015b612192573d8060008114612140576040519150601f19603f3d011682016040523d82523d6000602084013e612145565b606091505b50600081510361218a576040517f08c379a000000000000000000000000000000000000000000000000000000000815260040161218190613748565b60405180910390fd5b805181602001fd5b63150b7a0260e01b7bffffffffffffffffffffffffffffffffffffffffffffffffffffffff1916817bffffffffffffffffffffffffffffffffffffffffffffffffffffffff1916149150506121e7565b600190505b949350505050565b600073ffffffffffffffffffffffffffffffffffffffff168273ffffffffffffffffffffffffffffffffffffffff160361225e576040517f08c379a000000000000000000000000000000000000000000000000000000000815260040161225590613957565b60405180910390fd5b6122678161176f565b156122a7576040517f08c379a000000000000000000000000000000000000000000000000000000000815260040161229e906139c3565b60405180910390fd5b6122b360008383612003565b6001600360008473ffffffffffffffffffffffffffffffffffffffff1673ffffffffffffffffffffffffffffffffffffffff16815260200190815260200160002060008282546123039190613614565b92505081905550816002600083815260200190815260200160002060006101000a81548173ffffffffffffffffffffffffffffffffffffffff021916908373ffffffffffffffffffffffffffffffffffffffff160217905550808273ffffffffffffffffffffffffffffffffffffffff16600073ffffffffffffffffffffffffffffffffffffffff167fddf252ad1be2c89b69c2b068fc378daa952ba7f163c4a11628f55a4df523b3ef60405160405180910390a46123c460008383612008565b5050565b6000808273ffffffffffffffffffffffffffffffffffffffff163b119050919050565b6000604051905090565b600080fd5b600080fd5b60007fffffffff0000000000000000000000000000000000000000000000000000000082169050919050565b612434816123ff565b811461243f57600080fd5b50565b6000813590506124518161242b565b92915050565b60006020828403121561246d5761246c6123f5565b5b600061247b84828501612442565b91505092915050565b60008115159050919050565b61249981612484565b82525050565b60006020820190506124b46000830184612490565b92915050565b600081519050919050565b600082825260208201905092915050565b60005b838110156124f45780820151818401526020810190506124d9565b83811115612503576000848401525b50505050565b6000601f19601f8301169050919050565b6000612525826124ba565b61252f81856124c5565b935061253f8185602086016124d6565b61254881612509565b840191505092915050565b6000602082019050818103600083015261256d818461251a565b905092915050565b6000819050919050565b61258881612575565b811461259357600080fd5b50565b6000813590506125a58161257f565b92915050565b6000602082840312156125c1576125c06123f5565b5b60006125cf84828501612596565b91505092915050565b600073ffffffffffffffffffffffffffffffffffffffff82169050919050565b6000612603826125d8565b9050919050565b612613816125f8565b82525050565b600060208201905061262e600083018461260a565b92915050565b61263d816125f8565b811461264857600080fd5b50565b60008135905061265a81612634565b92915050565b60008060408385031215612677576126766123f5565b5b60006126858582860161264b565b925050602061269685828601612596565b9150509250929050565b6126a981612575565b82525050565b60006020820190506126c460008301846126a0565b92915050565b6000602082840312156126e0576126df6123f5565b5b60006126ee8482850161264b565b91505092915050565b6000806000606084860312156127105761270f6123f5565b5b600061271e8682870161264b565b935050602061272f8682870161264b565b925050604061274086828701612596565b9150509250925092565b60008060408385031215612761576127606123f5565b5b600061276f85828601612596565b92505060206127808582860161264b565b9150509250929050565b61279381612484565b811461279e57600080fd5b50565b6000813590506127b08161278a565b92915050565b600080604083850312156127cd576127cc6123f5565b5b60006127db8582860161264b565b92505060206127ec858286016127a1565b9150509250929050565b600080fd5b600080fd5b7f4e487b7100000000000000000000000000000000000000000000000000000000600052604160045260246000fd5b61283882612509565b810181811067ffffffffffffffff8211171561285757612856612800565b5b80604052505050565b600061286a6123eb565b9050612876828261282f565b919050565b600067ffffffffffffffff82111561289657612895612800565b5b61289f82612509565b9050602081019050919050565b82818337600083830152505050565b60006128ce6128c98461287b565b612860565b9050828152602081018484840111156128ea576128e96127fb565b5b6128f58482856128ac565b509392505050565b600082601f830112612912576129116127f6565b5b81356129228482602086016128bb565b91505092915050565b60008060008060808587031215612945576129446123f5565b5b60006129538782880161264b565b94505060206129648782880161264b565b935050604061297587828801612596565b925050606085013567ffffffffffffffff811115612996576129956123fa565b5b6129a2878288016128fd565b91505092959194509250565b600080604083850312156129c5576129c46123f5565b5b60006129d38582860161264b565b92505060206129e48582860161264b565b9150509250929050565b7f4e487b7100000000000000000000000000000000000000000000000000000000600052602260045260246000fd5b60006002820490506001821680612a3557607f821691505b602082108103612a4857612a476129ee565b5b50919050565b7f4552433732313a20617070726f76656420717565727920666f72206e6f6e657860008201527f697374656e7420746f6b656e0000000000000000000000000000000000000000602082015250565b6000612aaa602c836124c5565b9150612ab582612a4e565b604082019050919050565b60006020820190508181036000830152612ad981612a9d565b9050919050565b7f4552433732313a20617070726f76616c20746f2063757272656e74206f776e6560008201527f7200000000000000000000000000000000000000000000000000000000000000602082015250565b6000612b3c6021836124c5565b9150612b4782612ae0565b604082019050919050565b60006020820190508181036000830152612b6b81612b2f565b9050919050565b7f4552433732313a20617070726f76652063616c6c6572206973206e6f74206f7760008201527f6e6572206e6f7220617070726f76656420666f7220616c6c0000000000000000602082015250565b6000612bce6038836124c5565b9150612bd982612b72565b604082019050919050565b60006020820190508181036000830152612bfd81612bc1565b9050919050565b7f4552433732313a207472616e736665722063616c6c6572206973206e6f74206f60008201527f776e6572206e6f7220617070726f766564000000000000000000000000000000602082015250565b6000612c606031836124c5565b9150612c6b82612c04565b604082019050919050565b60006020820190508181036000830152612c8f81612c53565b9050919050565b7f4f776e61626c653a2063616c6c6572206973206e6f7420746865206f776e6572600082015250565b6000612ccc6020836124c5565b9150612cd782612c96565b602082019050919050565b60006020820190508181036000830152612cfb81612cbf565b9050919050565b600081519050612d118161257f565b92915050565b600060208284031215612d2d57612d2c6123f5565b5b6000612d3b84828501612d02565b91505092915050565b6000606082019050612d59600083018661260a565b612d66602083018561260a565b612d7360408301846126a0565b949350505050565b600081519050612d8a8161278a565b92915050565b600060208284031215612da657612da56123f5565b5b6000612db484828501612d7b565b91505092915050565b7f4552433732313a206f776e657220717565727920666f72206e6f6e657869737460008201527f656e7420746f6b656e0000000000000000000000000000000000000000000000602082015250565b6000612e196029836124c5565b9150612e2482612dbd565b604082019050919050565b60006020820190508181036000830152612e4881612e0c565b9050919050565b7f4552433732313a2062616c616e636520717565727920666f7220746865207a6560008201527f726f206164647265737300000000000000000000000000000000000000000000602082015250565b6000612eab602a836124c5565b9150612eb682612e4f565b604082019050919050565b60006020820190508181036000830152612eda81612e9e565b9050919050565b7f4e6f74206f776e6572206f66207468697320746f6b656e000000000000000000600082015250565b6000612f176017836124c5565b9150612f2282612ee1565b602082019050919050565b60006020820190508181036000830152612f4681612f0a565b9050919050565b7f43616e6e6f742068617665206d6f7265207468656e2033204e46545300000000600082015250565b6000612f83601c836124c5565b9150612f8e82612f4d565b602082019050919050565b60006020820190508181036000830152612fb281612f76565b9050919050565b7f43616e6e6f74206d696e742030204e4654530000000000000000000000000000600082015250565b6000612fef6012836124c5565b9150612ffa82612fb9565b602082019050919050565b6000602082019050818103600083015261301e81612fe2565b9050919050565b7f4e487b7100000000000000000000000000000000000000000000000000000000600052601160045260246000fd5b600061305f82612575565b915061306a83612575565b9250817fffffffffffffffffffffffffffffffffffffffffffffffffffffffffffffffff04831182151516156130a3576130a2613025565b5b828202905092915050565b7f6e6f7420656e6f7567682062616c616e63650000000000000000000000000000600082015250565b60006130e46012836124c5565b91506130ef826130ae565b602082019050919050565b60006020820190508181036000830152613113816130d7565b9050919050565b7f6d696e74696e67206e6f7420656e61626c656400000000000000000000000000600082015250565b60006131506013836124c5565b915061315b8261311a565b602082019050919050565b6000602082019050818103600083015261317f81613143565b9050919050565b7f65786365656473206d6178207065722077616c6c657400000000000000000000600082015250565b60006131bc6016836124c5565b91506131c782613186565b602082019050919050565b600060208201905081810360008301526131eb816131af565b9050919050565b7f736f6c64206f7574000000000000000000000000000000000000000000000000600082015250565b60006132286008836124c5565b9150613233826131f2565b602082019050919050565b600060208201905081810360008301526132578161321b565b9050919050565b600061326982612575565b91507fffffffffffffffffffffffffffffffffffffffffffffffffffffffffffffffff820361329b5761329a613025565b5b600182019050919050565b7f4552433732314d657461646174613a2055524920717565727920666f72206e6f60008201527f6e6578697374656e7420746f6b656e0000000000000000000000000000000000602082015250565b6000613302602f836124c5565b915061330d826132a6565b604082019050919050565b60006020820190508181036000830152613331816132f5565b9050919050565b600081905092915050565b600061334e826124ba565b6133588185613338565b93506133688185602086016124d6565b80840191505092915050565b60006133808285613343565b915061338c8284613343565b91508190509392505050565b7f4f776e61626c653a206e6577206f776e657220697320746865207a65726f206160008201527f6464726573730000000000000000000000000000000000000000000000000000602082015250565b60006133f46026836124c5565b91506133ff82613398565b604082019050919050565b60006020820190508181036000830152613423816133e7565b9050919050565b7f4552433732313a206f70657261746f7220717565727920666f72206e6f6e657860008201527f697374656e7420746f6b656e0000000000000000000000000000000000000000602082015250565b6000613486602c836124c5565b91506134918261342a565b604082019050919050565b600060208201905081810360008301526134b581613479565b9050919050565b7f4552433732313a207472616e736665722066726f6d20696e636f72726563742060008201527f6f776e6572000000000000000000000000000000000000000000000000000000602082015250565b60006135186025836124c5565b9150613523826134bc565b604082019050919050565b600060208201905081810360008301526135478161350b565b9050919050565b7f4552433732313a207472616e7366657220746f20746865207a65726f2061646460008201527f7265737300000000000000000000000000000000000000000000000000000000602082015250565b60006135aa6024836124c5565b91506135b58261354e565b604082019050919050565b600060208201905081810360008301526135d98161359d565b9050919050565b60006135eb82612575565b91506135f683612575565b92508282101561360957613608613025565b5b828203905092915050565b600061361f82612575565b915061362a83612575565b9250827fffffffffffffffffffffffffffffffffffffffffffffffffffffffffffffffff0382111561365f5761365e613025565b5b828201905092915050565b7f4552433732313a20617070726f766520746f2063616c6c657200000000000000600082015250565b60006136a06019836124c5565b91506136ab8261366a565b602082019050919050565b600060208201905081810360008301526136cf81613693565b9050919050565b7f4552433732313a207472616e7366657220746f206e6f6e20455243373231526560008201527f63656976657220696d706c656d656e7465720000000000000000000000000000602082015250565b60006137326032836124c5565b915061373d826136d6565b604082019050919050565b6000602082019050818103600083015261376181613725565b9050919050565b7f4e487b7100000000000000000000000000000000000000000000000000000000600052601260045260246000fd5b60006137a282612575565b91506137ad83612575565b9250826137bd576137bc613768565b5b828204905092915050565b60006137d382612575565b91506137de83612575565b9250826137ee576137ed613768565b5b828206905092915050565b7f4e487b7100000000000000000000000000000000000000000000000000000000600052603260045260246000fd5b600081519050919050565b600082825260208201905092915050565b600061384f82613828565b6138598185613833565b93506138698185602086016124d6565b61387281612509565b840191505092915050565b6000608082019050613892600083018761260a565b61389f602083018661260a565b6138ac60408301856126a0565b81810360608301526138be8184613844565b905095945050505050565b6000815190506138d88161242b565b92915050565b6000602082840312156138f4576138f36123f5565b5b6000613902848285016138c9565b91505092915050565b7f4552433732313a206d696e7420746f20746865207a65726f2061646472657373600082015250565b60006139416020836124c5565b915061394c8261390b565b602082019050919050565b6000602082019050818103600083015261397081613934565b9050919050565b7f4552433732313a20746f6b656e20616c7265616479206d696e74656400000000600082015250565b60006139ad601c836124c5565b91506139b882613977565b602082019050919050565b600060208201905081810360008301526139dc816139a0565b905091905056fea26469706673582212204c5c3a6da067a4dd937a6d9159d65843276871ad564b8109c5acd9b0977d3b4864736f6c634300080e0033",
  "immutableReferences": {},
  "source": "// SPDX-License-Identifier: MIT\r\npragma solidity ^0.8.14;\r\n\r\nimport \"../client/node_modules/@openzeppelin/contracts/token/ERC721/ERC721.sol\";\r\nimport \"../client/node_modules/@openzeppelin/contracts/access/Ownable.sol\";\r\nimport \"../contracts/Snow.sol\";\r\n\r\ncontract Pingus is ERC721, Ownable {\r\nuint256 public mintPrice = 1000;\r\nuint256 public totalSupply;\r\nuint256 public maxSupply;\r\nbool public isMintEnabled;\r\nSnow SnowContract;\r\n\r\nevent NftBought(address _seller, address _buyer, uint256 _price);\r\n\r\n//Keeps tracks of the NFT id and the wallet address it belongs to\r\nmapping(address => uint256) public mintedWallets;\r\n\r\n    constructor(address SnowAddress) payable ERC721('PinguNFT', 'PINGUS') {\r\n        maxSupply = 8;\r\n        SnowContract = Snow(SnowAddress);\r\n        SnowContract.ApproveAll(address(this));\r\n    }\r\n//Enables the minting of NFTS only the owner can call this function\r\n    function toggleIsMintEnabled() external onlyOwner {\r\n        isMintEnabled = !isMintEnabled;\r\n    }\r\n//Gets snow balance from snow contract\r\n    function SnowBalance(address account) external view returns(uint256){\r\n       return SnowContract.getBalance(account);\r\n    }\r\n//Get the amount of pingus \r\n    function Balance(address account) external view returns(uint256){\r\n        return balanceOf(account);\r\n    }\r\n//Mint Pingu NFT -Cannot mint more then 3 pingu NFTs at a time -1 Wallet cannot Mint if the wallet holds 3 or more pingu NFTS \r\n//Cannot mint 0 NFTS -mintPrice times NFTS cannot be greater then snow balance -isMintEnabled needs to be true\r\n//maxSupply needs to be greater then totalsupply or you won't be able to mind anymore NFTS\r\n    function mint(uint NFTS) external payable{\r\n        require(NFTS <= 3, 'Cannot have more then 3 NFTS');\r\n        require(NFTS != 0, 'Cannot mint 0 NFTS');\r\n        require(mintPrice * NFTS <= SnowContract.getBalance(msg.sender), 'not enough balance');\r\n        require(isMintEnabled, 'minting not enabled');\r\n        require(mintedWallets[msg.sender] < 3, 'exceeds max per wallet');\r\n        require(maxSupply > totalSupply, 'sold out');\r\n        SnowContract.transferFrom(msg.sender, address(this), mintPrice * NFTS);\r\n        uint256 count = 0;\r\n        while(NFTS > count){\r\n            count++;\r\n        mintedWallets[msg.sender]++;\r\n        uint256 TokenId = totalSupply++;\r\n        _safeMint(msg.sender, TokenId);\r\n        }\r\n    }\r\n    \r\n//Allows owner of contract to withdraw contracts snow balance\r\n    function withdrawSnow() external onlyOwner {\r\n        uint balance =  SnowContract.getBalance(address(this));    \r\n        SnowContract.transferFrom(address(this), msg.sender, balance);\r\n    }\r\n\r\n//Transfer Pingu NFT\r\n    function TransferNFT(uint256 _tokenId, address _reciever) external payable{\r\n        require(msg.sender == ownerOf(_tokenId), 'Not owner of this token');\r\n        _transfer(msg.sender, _reciever, _tokenId);\r\n    }\r\n}",
  "sourcePath": "C:\\Users\\dennis\\Desktop\\SnowyPingus\\contracts\\PinguNFTS.sol",
  "compiler": {
    "name": "solc",
    "version": "0.8.14+commit.80d49f37.Emscripten.clang"
  },
  "schemaVersion": "3.4.7",
  "updatedAt": "2022-05-25T10:37:44.083Z",
  "networkType": "ethereum",
  "devdoc": {
    "kind": "dev",
    "methods": {
      "approve(address,uint256)": {
        "details": "See {IERC721-approve}."
      },
      "balanceOf(address)": {
        "details": "See {IERC721-balanceOf}."
      },
      "getApproved(uint256)": {
        "details": "See {IERC721-getApproved}."
      },
      "isApprovedForAll(address,address)": {
        "details": "See {IERC721-isApprovedForAll}."
      },
      "name()": {
        "details": "See {IERC721Metadata-name}."
      },
      "owner()": {
        "details": "Returns the address of the current owner."
      },
      "ownerOf(uint256)": {
        "details": "See {IERC721-ownerOf}."
      },
      "renounceOwnership()": {
        "details": "Leaves the contract without owner. It will not be possible to call `onlyOwner` functions anymore. Can only be called by the current owner. NOTE: Renouncing ownership will leave the contract without an owner, thereby removing any functionality that is only available to the owner."
      },
      "safeTransferFrom(address,address,uint256)": {
        "details": "See {IERC721-safeTransferFrom}."
      },
      "safeTransferFrom(address,address,uint256,bytes)": {
        "details": "See {IERC721-safeTransferFrom}."
      },
      "setApprovalForAll(address,bool)": {
        "details": "See {IERC721-setApprovalForAll}."
      },
      "supportsInterface(bytes4)": {
        "details": "See {IERC165-supportsInterface}."
      },
      "symbol()": {
        "details": "See {IERC721Metadata-symbol}."
      },
      "tokenURI(uint256)": {
        "details": "See {IERC721Metadata-tokenURI}."
      },
      "transferFrom(address,address,uint256)": {
        "details": "See {IERC721-transferFrom}."
      },
      "transferOwnership(address)": {
        "details": "Transfers ownership of the contract to a new account (`newOwner`). Can only be called by the current owner."
      }
    },
    "version": 1
  },
  "userdoc": {
    "kind": "user",
    "methods": {},
    "version": 1
  }
}