{
  "contractName": "Snow",
  "abi": [
    {
      "inputs": [],
      "stateMutability": "nonpayable",
      "type": "constructor"
    },
    {
      "anonymous": false,
      "inputs": [
        {
          "indexed": true,
          "internalType": "address",
          "name": "owner",
          "type": "address"
        },
        {
          "indexed": true,
          "internalType": "address",
          "name": "spender",
          "type": "address"
        },
        {
          "indexed": false,
          "internalType": "uint256",
          "name": "value",
          "type": "uint256"
        }
      ],
      "name": "Approval",
      "type": "event"
    },
    {
      "anonymous": false,
      "inputs": [
        {
          "indexed": true,
          "internalType": "address",
          "name": "previousOwner",
          "type": "address"
        },
        {
          "indexed": true,
          "internalType": "address",
          "name": "newOwner",
          "type": "address"
        }
      ],
      "name": "OwnershipTransferred",
      "type": "event"
    },
    {
      "anonymous": false,
      "inputs": [
        {
          "indexed": true,
          "internalType": "address",
          "name": "from",
          "type": "address"
        },
        {
          "indexed": true,
          "internalType": "address",
          "name": "to",
          "type": "address"
        },
        {
          "indexed": false,
          "internalType": "uint256",
          "name": "value",
          "type": "uint256"
        }
      ],
      "name": "Transfer",
      "type": "event"
    },
    {
      "inputs": [
        {
          "internalType": "address",
          "name": "owner",
          "type": "address"
        },
        {
          "internalType": "address",
          "name": "spender",
          "type": "address"
        }
      ],
      "name": "allowance",
      "outputs": [
        {
          "internalType": "uint256",
          "name": "",
          "type": "uint256"
        }
      ],
      "stateMutability": "view",
      "type": "function",
      "constant": true
    },
    {
      "inputs": [
        {
          "internalType": "address",
          "name": "spender",
          "type": "address"
        },
        {
          "internalType": "uint256",
          "name": "amount",
          "type": "uint256"
        }
      ],
      "name": "approve",
      "outputs": [
        {
          "internalType": "bool",
          "name": "",
          "type": "bool"
        }
      ],
      "stateMutability": "nonpayable",
      "type": "function"
    },
    {
      "inputs": [
        {
          "internalType": "address",
          "name": "account",
          "type": "address"
        }
      ],
      "name": "balanceOf",
      "outputs": [
        {
          "internalType": "uint256",
          "name": "",
          "type": "uint256"
        }
      ],
      "stateMutability": "view",
      "type": "function",
      "constant": true
    },
    {
      "inputs": [],
      "name": "decimals",
      "outputs": [
        {
          "internalType": "uint8",
          "name": "",
          "type": "uint8"
        }
      ],
      "stateMutability": "view",
      "type": "function",
      "constant": true
    },
    {
      "inputs": [
        {
          "internalType": "address",
          "name": "spender",
          "type": "address"
        },
        {
          "internalType": "uint256",
          "name": "subtractedValue",
          "type": "uint256"
        }
      ],
      "name": "decreaseAllowance",
      "outputs": [
        {
          "internalType": "bool",
          "name": "",
          "type": "bool"
        }
      ],
      "stateMutability": "nonpayable",
      "type": "function"
    },
    {
      "inputs": [
        {
          "internalType": "address",
          "name": "spender",
          "type": "address"
        },
        {
          "internalType": "uint256",
          "name": "addedValue",
          "type": "uint256"
        }
      ],
      "name": "increaseAllowance",
      "outputs": [
        {
          "internalType": "bool",
          "name": "",
          "type": "bool"
        }
      ],
      "stateMutability": "nonpayable",
      "type": "function"
    },
    {
      "inputs": [],
      "name": "mintPrice",
      "outputs": [
        {
          "internalType": "uint256",
          "name": "",
          "type": "uint256"
        }
      ],
      "stateMutability": "view",
      "type": "function",
      "constant": true
    },
    {
      "inputs": [],
      "name": "name",
      "outputs": [
        {
          "internalType": "string",
          "name": "",
          "type": "string"
        }
      ],
      "stateMutability": "view",
      "type": "function",
      "constant": true
    },
    {
      "inputs": [],
      "name": "owner",
      "outputs": [
        {
          "internalType": "address",
          "name": "",
          "type": "address"
        }
      ],
      "stateMutability": "view",
      "type": "function",
      "constant": true
    },
    {
      "inputs": [],
      "name": "renounceOwnership",
      "outputs": [],
      "stateMutability": "nonpayable",
      "type": "function"
    },
    {
      "inputs": [],
      "name": "symbol",
      "outputs": [
        {
          "internalType": "string",
          "name": "",
          "type": "string"
        }
      ],
      "stateMutability": "view",
      "type": "function",
      "constant": true
    },
    {
      "inputs": [],
      "name": "totalSupply",
      "outputs": [
        {
          "internalType": "uint256",
          "name": "",
          "type": "uint256"
        }
      ],
      "stateMutability": "view",
      "type": "function",
      "constant": true
    },
    {
      "inputs": [
        {
          "internalType": "address",
          "name": "to",
          "type": "address"
        },
        {
          "internalType": "uint256",
          "name": "amount",
          "type": "uint256"
        }
      ],
      "name": "transfer",
      "outputs": [
        {
          "internalType": "bool",
          "name": "",
          "type": "bool"
        }
      ],
      "stateMutability": "nonpayable",
      "type": "function"
    },
    {
      "inputs": [
        {
          "internalType": "address",
          "name": "from",
          "type": "address"
        },
        {
          "internalType": "address",
          "name": "to",
          "type": "address"
        },
        {
          "internalType": "uint256",
          "name": "amount",
          "type": "uint256"
        }
      ],
      "name": "transferFrom",
      "outputs": [
        {
          "internalType": "bool",
          "name": "",
          "type": "bool"
        }
      ],
      "stateMutability": "nonpayable",
      "type": "function"
    },
    {
      "inputs": [
        {
          "internalType": "address",
          "name": "newOwner",
          "type": "address"
        }
      ],
      "name": "transferOwnership",
      "outputs": [],
      "stateMutability": "nonpayable",
      "type": "function"
    },
    {
      "inputs": [
        {
          "internalType": "uint256",
          "name": "CoinMints",
          "type": "uint256"
        }
      ],
      "name": "mintsnow",
      "outputs": [],
      "stateMutability": "payable",
      "type": "function",
      "payable": true
    },
    {
      "inputs": [
        {
          "internalType": "address",
          "name": "account",
          "type": "address"
        }
      ],
      "name": "getBalance",
      "outputs": [
        {
          "internalType": "uint256",
          "name": "",
          "type": "uint256"
        }
      ],
      "stateMutability": "view",
      "type": "function",
      "constant": true
    },
    {
      "inputs": [
        {
          "internalType": "address",
          "name": "spender",
          "type": "address"
        }
      ],
      "name": "ApproveAll",
      "outputs": [],
      "stateMutability": "nonpayable",
      "type": "function"
    },
    {
      "inputs": [
        {
          "internalType": "address",
          "name": "reciever",
          "type": "address"
        },
        {
          "internalType": "uint256",
          "name": "SnowAmount",
          "type": "uint256"
        }
      ],
      "name": "transfersnow",
      "outputs": [],
      "stateMutability": "payable",
      "type": "function",
      "payable": true
    },
    {
      "inputs": [],
      "name": "withdraw",
      "outputs": [],
      "stateMutability": "payable",
      "type": "function",
      "payable": true
    }
  ],
  "bytecode": "0x6080604052670de0b6b3a76400006006556127106007556103e86008553480156200002957600080fd5b506040518060400160405280600481526020017f736e6f77000000000000000000000000000000000000000000000000000000008152506040518060400160405280600481526020017f534e4f57000000000000000000000000000000000000000000000000000000008152508160039080519060200190620000ae92919062000354565b508060049080519060200190620000c792919062000354565b505050620000ea620000de6200010460201b60201c565b6200010c60201b60201c565b620000fe336103e8620001d260201b60201c565b620005af565b600033905090565b6000600560009054906101000a900473ffffffffffffffffffffffffffffffffffffffff16905081600560006101000a81548173ffffffffffffffffffffffffffffffffffffffff021916908373ffffffffffffffffffffffffffffffffffffffff1602179055508173ffffffffffffffffffffffffffffffffffffffff168173ffffffffffffffffffffffffffffffffffffffff167f8be0079c531659141344cd1fd0a4f28419497f9722a3daafe3b4186f6b6457e060405160405180910390a35050565b600073ffffffffffffffffffffffffffffffffffffffff168273ffffffffffffffffffffffffffffffffffffffff160362000244576040517f08c379a00000000000000000000000000000000000000000000000000000000081526004016200023b9062000465565b60405180910390fd5b62000258600083836200034a60201b60201c565b80600260008282546200026c9190620004c0565b92505081905550806000808473ffffffffffffffffffffffffffffffffffffffff1673ffffffffffffffffffffffffffffffffffffffff1681526020019081526020016000206000828254620002c39190620004c0565b925050819055508173ffffffffffffffffffffffffffffffffffffffff16600073ffffffffffffffffffffffffffffffffffffffff167fddf252ad1be2c89b69c2b068fc378daa952ba7f163c4a11628f55a4df523b3ef836040516200032a91906200052e565b60405180910390a362000346600083836200034f60201b60201c565b5050565b505050565b505050565b82805462000362906200057a565b90600052602060002090601f016020900481019282620003865760008555620003d2565b82601f10620003a157805160ff1916838001178555620003d2565b82800160010185558215620003d2579182015b82811115620003d1578251825591602001919060010190620003b4565b5b509050620003e19190620003e5565b5090565b5b8082111562000400576000816000905550600101620003e6565b5090565b600082825260208201905092915050565b7f45524332303a206d696e7420746f20746865207a65726f206164647265737300600082015250565b60006200044d601f8362000404565b91506200045a8262000415565b602082019050919050565b6000602082019050818103600083015262000480816200043e565b9050919050565b6000819050919050565b7f4e487b7100000000000000000000000000000000000000000000000000000000600052601160045260246000fd5b6000620004cd8262000487565b9150620004da8362000487565b9250827fffffffffffffffffffffffffffffffffffffffffffffffffffffffffffffffff0382111562000512576200051162000491565b5b828201905092915050565b620005288162000487565b82525050565b60006020820190506200054560008301846200051d565b92915050565b7f4e487b7100000000000000000000000000000000000000000000000000000000600052602260045260246000fd5b600060028204905060018216806200059357607f821691505b602082108103620005a957620005a86200054b565b5b50919050565b611e7d80620005bf6000396000f3fe60806040526004361061011f5760003560e01c8063715018a6116100a0578063a9059cbb11610064578063a9059cbb146103bd578063da4e2b6b146103fa578063dd62ed3e14610416578063f2fde38b14610453578063f8b2cb4f1461047c5761011f565b8063715018a6146102f75780638da5cb5b1461030e57806395d89b411461033957806398572d8114610364578063a457c2d7146103805761011f565b8063324d14ae116100e7578063324d14ae1461021f57806339509351146102485780633ccfd60b146102855780636817c76c1461028f57806370a08231146102ba5761011f565b806306fdde0314610124578063095ea7b31461014f57806318160ddd1461018c57806323b872dd146101b7578063313ce567146101f4575b600080fd5b34801561013057600080fd5b506101396104b9565b60405161014691906113fd565b60405180910390f35b34801561015b57600080fd5b50610176600480360381019061017191906114b8565b61054b565b6040516101839190611513565b60405180910390f35b34801561019857600080fd5b506101a161056e565b6040516101ae919061153d565b60405180910390f35b3480156101c357600080fd5b506101de60048036038101906101d99190611558565b610578565b6040516101eb9190611513565b60405180910390f35b34801561020057600080fd5b506102096105a7565b60405161021691906115c7565b60405180910390f35b34801561022b57600080fd5b50610246600480360381019061024191906115e2565b6105b0565b005b34801561025457600080fd5b5061026f600480360381019061026a91906114b8565b6105c0565b60405161027c9190611513565b60405180910390f35b61028d61066a565b005b34801561029b57600080fd5b506102a4610735565b6040516102b1919061153d565b60405180910390f35b3480156102c657600080fd5b506102e160048036038101906102dc91906115e2565b61073b565b6040516102ee919061153d565b60405180910390f35b34801561030357600080fd5b5061030c610783565b005b34801561031a57600080fd5b5061032361080b565b604051610330919061161e565b60405180910390f35b34801561034557600080fd5b5061034e610835565b60405161035b91906113fd565b60405180910390f35b61037e600480360381019061037991906114b8565b6108c7565b005b34801561038c57600080fd5b506103a760048036038101906103a291906114b8565b6108d6565b6040516103b49190611513565b60405180910390f35b3480156103c957600080fd5b506103e460048036038101906103df91906114b8565b6109c0565b6040516103f19190611513565b60405180910390f35b610414600480360381019061040f9190611639565b6109e3565b005b34801561042257600080fd5b5061043d60048036038101906104389190611666565b610ac4565b60405161044a919061153d565b60405180910390f35b34801561045f57600080fd5b5061047a600480360381019061047591906115e2565b610b4b565b005b34801561048857600080fd5b506104a3600480360381019061049e91906115e2565b610c42565b6040516104b0919061153d565b60405180910390f35b6060600380546104c8906116d5565b80601f01602080910402602001604051908101604052809291908181526020018280546104f4906116d5565b80156105415780601f1061051657610100808354040283529160200191610541565b820191906000526020600020905b81548152906001019060200180831161052457829003601f168201915b5050505050905090565b600080610556610c59565b9050610563818585610c61565b600191505092915050565b6000600254905090565b600080610583610c59565b9050610590858285610e2a565b61059b858585610eb6565b60019150509392505050565b60006012905090565b6105bc8160075461054b565b5050565b6000806105cb610c59565b905061065f818585600160008673ffffffffffffffffffffffffffffffffffffffff1673ffffffffffffffffffffffffffffffffffffffff16815260200190815260200160002060008973ffffffffffffffffffffffffffffffffffffffff1673ffffffffffffffffffffffffffffffffffffffff1681526020019081526020016000205461065a9190611735565b610c61565b600191505092915050565b610672610c59565b73ffffffffffffffffffffffffffffffffffffffff1661069061080b565b73ffffffffffffffffffffffffffffffffffffffff16146106e6576040517f08c379a00000000000000000000000000000000000000000000000000000000081526004016106dd906117d7565b60405180910390fd5b60004790503373ffffffffffffffffffffffffffffffffffffffff166108fc829081150290604051600060405180830381858888f19350505050158015610731573d6000803e3d6000fd5b5050565b60065481565b60008060008373ffffffffffffffffffffffffffffffffffffffff1673ffffffffffffffffffffffffffffffffffffffff168152602001908152602001600020549050919050565b61078b610c59565b73ffffffffffffffffffffffffffffffffffffffff166107a961080b565b73ffffffffffffffffffffffffffffffffffffffff16146107ff576040517f08c379a00000000000000000000000000000000000000000000000000000000081526004016107f6906117d7565b60405180910390fd5b6108096000611135565b565b6000600560009054906101000a900473ffffffffffffffffffffffffffffffffffffffff16905090565b606060048054610844906116d5565b80601f0160208091040260200160405190810160405280929190818152602001828054610870906116d5565b80156108bd5780601f10610892576101008083540402835291602001916108bd565b820191906000526020600020905b8154815290600101906020018083116108a057829003601f168201915b5050505050905090565b6108d182826109c0565b505050565b6000806108e1610c59565b90506000600160008373ffffffffffffffffffffffffffffffffffffffff1673ffffffffffffffffffffffffffffffffffffffff16815260200190815260200160002060008673ffffffffffffffffffffffffffffffffffffffff1673ffffffffffffffffffffffffffffffffffffffff168152602001908152602001600020549050838110156109a7576040517f08c379a000000000000000000000000000000000000000000000000000000000815260040161099e90611869565b60405180910390fd5b6109b48286868403610c61565b60019250505092915050565b6000806109cb610c59565b90506109d8818585610eb6565b600191505092915050565b806006546109f19190611889565b3414610a32576040517f08c379a0000000000000000000000000000000000000000000000000000000008152600401610a299061192f565b60405180910390fd5b600754610a3d61056e565b82600854610a4b9190611889565b610a559190611735565b1115610a96576040517f08c379a0000000000000000000000000000000000000000000000000000000008152600401610a8d9061199b565b60405180910390fd5b60005b80821115610ac0578080610aac906119bb565b915050610abb336008546111fb565b610a99565b5050565b6000600160008473ffffffffffffffffffffffffffffffffffffffff1673ffffffffffffffffffffffffffffffffffffffff16815260200190815260200160002060008373ffffffffffffffffffffffffffffffffffffffff1673ffffffffffffffffffffffffffffffffffffffff16815260200190815260200160002054905092915050565b610b53610c59565b73ffffffffffffffffffffffffffffffffffffffff16610b7161080b565b73ffffffffffffffffffffffffffffffffffffffff1614610bc7576040517f08c379a0000000000000000000000000000000000000000000000000000000008152600401610bbe906117d7565b60405180910390fd5b600073ffffffffffffffffffffffffffffffffffffffff168173ffffffffffffffffffffffffffffffffffffffff1603610c36576040517f08c379a0000000000000000000000000000000000000000000000000000000008152600401610c2d90611a75565b60405180910390fd5b610c3f81611135565b50565b600080610c4e8361073b565b905080915050919050565b600033905090565b600073ffffffffffffffffffffffffffffffffffffffff168373ffffffffffffffffffffffffffffffffffffffff1603610cd0576040517f08c379a0000000000000000000000000000000000000000000000000000000008152600401610cc790611b07565b60405180910390fd5b600073ffffffffffffffffffffffffffffffffffffffff168273ffffffffffffffffffffffffffffffffffffffff1603610d3f576040517f08c379a0000000000000000000000000000000000000000000000000000000008152600401610d3690611b99565b60405180910390fd5b80600160008573ffffffffffffffffffffffffffffffffffffffff1673ffffffffffffffffffffffffffffffffffffffff16815260200190815260200160002060008473ffffffffffffffffffffffffffffffffffffffff1673ffffffffffffffffffffffffffffffffffffffff168152602001908152602001600020819055508173ffffffffffffffffffffffffffffffffffffffff168373ffffffffffffffffffffffffffffffffffffffff167f8c5be1e5ebec7d5bd14f71427d1e84f3dd0314c0f7b2291e5b200ac8c7c3b92583604051610e1d919061153d565b60405180910390a3505050565b6000610e368484610ac4565b90507fffffffffffffffffffffffffffffffffffffffffffffffffffffffffffffffff8114610eb05781811015610ea2576040517f08c379a0000000000000000000000000000000000000000000000000000000008152600401610e9990611c05565b60405180910390fd5b610eaf8484848403610c61565b5b50505050565b600073ffffffffffffffffffffffffffffffffffffffff168373ffffffffffffffffffffffffffffffffffffffff1603610f25576040517f08c379a0000000000000000000000000000000000000000000000000000000008152600401610f1c90611c97565b60405180910390fd5b600073ffffffffffffffffffffffffffffffffffffffff168273ffffffffffffffffffffffffffffffffffffffff1603610f94576040517f08c379a0000000000000000000000000000000000000000000000000000000008152600401610f8b90611d29565b60405180910390fd5b610f9f83838361135a565b60008060008573ffffffffffffffffffffffffffffffffffffffff1673ffffffffffffffffffffffffffffffffffffffff16815260200190815260200160002054905081811015611025576040517f08c379a000000000000000000000000000000000000000000000000000000000815260040161101c90611dbb565b60405180910390fd5b8181036000808673ffffffffffffffffffffffffffffffffffffffff1673ffffffffffffffffffffffffffffffffffffffff16815260200190815260200160002081905550816000808573ffffffffffffffffffffffffffffffffffffffff1673ffffffffffffffffffffffffffffffffffffffff16815260200190815260200160002060008282546110b89190611735565b925050819055508273ffffffffffffffffffffffffffffffffffffffff168473ffffffffffffffffffffffffffffffffffffffff167fddf252ad1be2c89b69c2b068fc378daa952ba7f163c4a11628f55a4df523b3ef8460405161111c919061153d565b60405180910390a361112f84848461135f565b50505050565b6000600560009054906101000a900473ffffffffffffffffffffffffffffffffffffffff16905081600560006101000a81548173ffffffffffffffffffffffffffffffffffffffff021916908373ffffffffffffffffffffffffffffffffffffffff1602179055508173ffffffffffffffffffffffffffffffffffffffff168173ffffffffffffffffffffffffffffffffffffffff167f8be0079c531659141344cd1fd0a4f28419497f9722a3daafe3b4186f6b6457e060405160405180910390a35050565b600073ffffffffffffffffffffffffffffffffffffffff168273ffffffffffffffffffffffffffffffffffffffff160361126a576040517f08c379a000000000000000000000000000000000000000000000000000000000815260040161126190611e27565b60405180910390fd5b6112766000838361135a565b80600260008282546112889190611735565b92505081905550806000808473ffffffffffffffffffffffffffffffffffffffff1673ffffffffffffffffffffffffffffffffffffffff16815260200190815260200160002060008282546112dd9190611735565b925050819055508173ffffffffffffffffffffffffffffffffffffffff16600073ffffffffffffffffffffffffffffffffffffffff167fddf252ad1be2c89b69c2b068fc378daa952ba7f163c4a11628f55a4df523b3ef83604051611342919061153d565b60405180910390a36113566000838361135f565b5050565b505050565b505050565b600081519050919050565b600082825260208201905092915050565b60005b8381101561139e578082015181840152602081019050611383565b838111156113ad576000848401525b50505050565b6000601f19601f8301169050919050565b60006113cf82611364565b6113d9818561136f565b93506113e9818560208601611380565b6113f2816113b3565b840191505092915050565b6000602082019050818103600083015261141781846113c4565b905092915050565b600080fd5b600073ffffffffffffffffffffffffffffffffffffffff82169050919050565b600061144f82611424565b9050919050565b61145f81611444565b811461146a57600080fd5b50565b60008135905061147c81611456565b92915050565b6000819050919050565b61149581611482565b81146114a057600080fd5b50565b6000813590506114b28161148c565b92915050565b600080604083850312156114cf576114ce61141f565b5b60006114dd8582860161146d565b92505060206114ee858286016114a3565b9150509250929050565b60008115159050919050565b61150d816114f8565b82525050565b60006020820190506115286000830184611504565b92915050565b61153781611482565b82525050565b6000602082019050611552600083018461152e565b92915050565b6000806000606084860312156115715761157061141f565b5b600061157f8682870161146d565b93505060206115908682870161146d565b92505060406115a1868287016114a3565b9150509250925092565b600060ff82169050919050565b6115c1816115ab565b82525050565b60006020820190506115dc60008301846115b8565b92915050565b6000602082840312156115f8576115f761141f565b5b60006116068482850161146d565b91505092915050565b61161881611444565b82525050565b6000602082019050611633600083018461160f565b92915050565b60006020828403121561164f5761164e61141f565b5b600061165d848285016114a3565b91505092915050565b6000806040838503121561167d5761167c61141f565b5b600061168b8582860161146d565b925050602061169c8582860161146d565b9150509250929050565b7f4e487b7100000000000000000000000000000000000000000000000000000000600052602260045260246000fd5b600060028204905060018216806116ed57607f821691505b602082108103611700576116ff6116a6565b5b50919050565b7f4e487b7100000000000000000000000000000000000000000000000000000000600052601160045260246000fd5b600061174082611482565b915061174b83611482565b9250827fffffffffffffffffffffffffffffffffffffffffffffffffffffffffffffffff038211156117805761177f611706565b5b828201905092915050565b7f4f776e61626c653a2063616c6c6572206973206e6f7420746865206f776e6572600082015250565b60006117c160208361136f565b91506117cc8261178b565b602082019050919050565b600060208201905081810360008301526117f0816117b4565b9050919050565b7f45524332303a2064656372656173656420616c6c6f77616e63652062656c6f7760008201527f207a65726f000000000000000000000000000000000000000000000000000000602082015250565b600061185360258361136f565b915061185e826117f7565b604082019050919050565b6000602082019050818103600083015261188281611846565b9050919050565b600061189482611482565b915061189f83611482565b9250817fffffffffffffffffffffffffffffffffffffffffffffffffffffffffffffffff04831182151516156118d8576118d7611706565b5b828202905092915050565b7f77726f6e672076616c7565000000000000000000000000000000000000000000600082015250565b6000611919600b8361136f565b9150611924826118e3565b602082019050919050565b600060208201905081810360008301526119488161190c565b9050919050565b7f736f6c64206f7574000000000000000000000000000000000000000000000000600082015250565b600061198560088361136f565b91506119908261194f565b602082019050919050565b600060208201905081810360008301526119b481611978565b9050919050565b60006119c682611482565b91507fffffffffffffffffffffffffffffffffffffffffffffffffffffffffffffffff82036119f8576119f7611706565b5b600182019050919050565b7f4f776e61626c653a206e6577206f776e657220697320746865207a65726f206160008201527f6464726573730000000000000000000000000000000000000000000000000000602082015250565b6000611a5f60268361136f565b9150611a6a82611a03565b604082019050919050565b60006020820190508181036000830152611a8e81611a52565b9050919050565b7f45524332303a20617070726f76652066726f6d20746865207a65726f2061646460008201527f7265737300000000000000000000000000000000000000000000000000000000602082015250565b6000611af160248361136f565b9150611afc82611a95565b604082019050919050565b60006020820190508181036000830152611b2081611ae4565b9050919050565b7f45524332303a20617070726f766520746f20746865207a65726f20616464726560008201527f7373000000000000000000000000000000000000000000000000000000000000602082015250565b6000611b8360228361136f565b9150611b8e82611b27565b604082019050919050565b60006020820190508181036000830152611bb281611b76565b9050919050565b7f45524332303a20696e73756666696369656e7420616c6c6f77616e6365000000600082015250565b6000611bef601d8361136f565b9150611bfa82611bb9565b602082019050919050565b60006020820190508181036000830152611c1e81611be2565b9050919050565b7f45524332303a207472616e736665722066726f6d20746865207a65726f20616460008201527f6472657373000000000000000000000000000000000000000000000000000000602082015250565b6000611c8160258361136f565b9150611c8c82611c25565b604082019050919050565b60006020820190508181036000830152611cb081611c74565b9050919050565b7f45524332303a207472616e7366657220746f20746865207a65726f206164647260008201527f6573730000000000000000000000000000000000000000000000000000000000602082015250565b6000611d1360238361136f565b9150611d1e82611cb7565b604082019050919050565b60006020820190508181036000830152611d4281611d06565b9050919050565b7f45524332303a207472616e7366657220616d6f756e742065786365656473206260008201527f616c616e63650000000000000000000000000000000000000000000000000000602082015250565b6000611da560268361136f565b9150611db082611d49565b604082019050919050565b60006020820190508181036000830152611dd481611d98565b9050919050565b7f45524332303a206d696e7420746f20746865207a65726f206164647265737300600082015250565b6000611e11601f8361136f565b9150611e1c82611ddb565b602082019050919050565b60006020820190508181036000830152611e4081611e04565b905091905056fea2646970667358221220008837cc89dd957c622f05aff49d318524c87aae56d77cac862946905299701264736f6c634300080e0033",
  "immutableReferences": {},
  "source": "// SPDX-License-Identifier: MIT\r\npragma solidity ^0.8.14;\r\n\r\nimport \"../client/node_modules/@openzeppelin/contracts/token/ERC20/ERC20.sol\";\r\nimport \"../client/node_modules/@openzeppelin/contracts/access/Ownable.sol\";\r\n\r\ncontract Snow is ERC20, Ownable {\r\nuint256 public mintPrice = 1 ether;\r\nuint256 _maxSupply = 10000;\r\nuint256 amount = 1000;\r\n\r\nconstructor() ERC20(\"snow\", \"SNOW\")  {\r\n    _mint(msg.sender, 1000);\r\n}\r\n\r\n//Mints Snow is always a 1000 coins times the CoinMints which is a value send when you call the function\r\n//Cannot the ether send when you call the function needs to be equal to the mintprice times the coinmints the mintprice is 1 ether\r\n//amount times coinmints plus the totalsupply which is the current total amount of snow minted cannot be greater then the maxsupply which is 10000\r\n function mintsnow(uint256 CoinMints) external payable {\r\n     require(msg.value == mintPrice * CoinMints, 'wrong value');\r\n     require((amount * CoinMints + totalSupply()) <= _maxSupply, 'sold out');\r\n\r\n     uint256 count = 0;\r\n     while(CoinMints > count){\r\n         count++;\r\n        _mint(msg.sender, amount);\r\n     } \r\n }\r\n //gets the balance of the account address that is given when you call the function\r\n function getBalance(address account) external view returns(uint256){\r\n    uint256 balance = balanceOf(account);\r\n    return balance;\r\n }\r\n //Approves exernal address to spend your snow \r\nfunction ApproveAll(address spender) external {\r\n    approve(spender, _maxSupply);\r\n}\r\n//Sends snow token to other account\r\nfunction transfersnow(address reciever, uint256 SnowAmount) external payable{\r\n    transfer(reciever, SnowAmount);\r\n}\r\n//Allows owner of contract to withdraw contracts balance\r\n    function withdraw() external onlyOwner payable {\r\n        uint balance = address(this).balance;\r\n        payable(msg.sender).transfer(balance);\r\n    }\r\n}",
  "sourcePath": "C:\\Users\\dennis\\Desktop\\SnowyPingus\\contracts\\Snow.sol",
  "compiler": {
    "name": "solc",
    "version": "0.8.14+commit.80d49f37.Emscripten.clang"
  },
  "schemaVersion": "3.4.7",
  "updatedAt": "2022-05-25T10:37:44.095Z",
  "networkType": "ethereum",
  "devdoc": {
    "kind": "dev",
    "methods": {
      "allowance(address,address)": {
        "details": "See {IERC20-allowance}."
      },
      "approve(address,uint256)": {
        "details": "See {IERC20-approve}. NOTE: If `amount` is the maximum `uint256`, the allowance is not updated on `transferFrom`. This is semantically equivalent to an infinite approval. Requirements: - `spender` cannot be the zero address."
      },
      "balanceOf(address)": {
        "details": "See {IERC20-balanceOf}."
      },
      "decimals()": {
        "details": "Returns the number of decimals used to get its user representation. For example, if `decimals` equals `2`, a balance of `505` tokens should be displayed to a user as `5.05` (`505 / 10 ** 2`). Tokens usually opt for a value of 18, imitating the relationship between Ether and Wei. This is the value {ERC20} uses, unless this function is overridden; NOTE: This information is only used for _display_ purposes: it in no way affects any of the arithmetic of the contract, including {IERC20-balanceOf} and {IERC20-transfer}."
      },
      "decreaseAllowance(address,uint256)": {
        "details": "Atomically decreases the allowance granted to `spender` by the caller. This is an alternative to {approve} that can be used as a mitigation for problems described in {IERC20-approve}. Emits an {Approval} event indicating the updated allowance. Requirements: - `spender` cannot be the zero address. - `spender` must have allowance for the caller of at least `subtractedValue`."
      },
      "increaseAllowance(address,uint256)": {
        "details": "Atomically increases the allowance granted to `spender` by the caller. This is an alternative to {approve} that can be used as a mitigation for problems described in {IERC20-approve}. Emits an {Approval} event indicating the updated allowance. Requirements: - `spender` cannot be the zero address."
      },
      "name()": {
        "details": "Returns the name of the token."
      },
      "owner()": {
        "details": "Returns the address of the current owner."
      },
      "renounceOwnership()": {
        "details": "Leaves the contract without owner. It will not be possible to call `onlyOwner` functions anymore. Can only be called by the current owner. NOTE: Renouncing ownership will leave the contract without an owner, thereby removing any functionality that is only available to the owner."
      },
      "symbol()": {
        "details": "Returns the symbol of the token, usually a shorter version of the name."
      },
      "totalSupply()": {
        "details": "See {IERC20-totalSupply}."
      },
      "transfer(address,uint256)": {
        "details": "See {IERC20-transfer}. Requirements: - `to` cannot be the zero address. - the caller must have a balance of at least `amount`."
      },
      "transferFrom(address,address,uint256)": {
        "details": "See {IERC20-transferFrom}. Emits an {Approval} event indicating the updated allowance. This is not required by the EIP. See the note at the beginning of {ERC20}. NOTE: Does not update the allowance if the current allowance is the maximum `uint256`. Requirements: - `from` and `to` cannot be the zero address. - `from` must have a balance of at least `amount`. - the caller must have allowance for ``from``'s tokens of at least `amount`."
      },
      "transferOwnership(address)": {
        "details": "Transfers ownership of the contract to a new account (`newOwner`). Can only be called by the current owner."
      }
    },
    "version": 1
  },
  "userdoc": {
    "kind": "user",
    "methods": {},
    "version": 1
  }
}